:1000000009C021C020C01FC01EC01DC01CC01BC015
:100010009EC019C011241FBECFE9CDBF10E0A0E6DD
:10002000B0E0E2EDF3E002C005900D92A236B10718
:10003000D9F720E0A2E6B0E001C01D92A237B207D6
:10004000E1F7AAD0C4C1DCCF823038F49FB581116A
:1000500002C09F7701C09F7D9FBD26B330E0A901FC
:1000600002C0559547958A95E2F7CA0181700895B7
:1000700098B321E030E001C0220F8A95EAF7292BDE
:1000800028BB08958091660090916700A091680058
:10009000B091690034E0880F991FAA1FBB1F3A95E1
:1000A000D1F74091620050916300609164007091BB
:1000B0006500841B950BA60BB70BC397A105B10573
:1000C000A0F081E0C1DF813021F490916000913097
:1000D000A1F482E0B9DF813059F081E0B5DF811110
:1000E00004C082E0B1DF882311F18091600008959F
:1000F00080916000823089F382E08093600080917B
:10010000660090916700A0916800B091690024E0BA
:10011000880F991FAA1FBB1F2A95D1F780936200F1
:1001200090936300A0936400B0936500DECF80914C
:1001300060008823D1F210926000E1CFEFE5F9E092
:100140003197F1F700C000000197C1F708951F92A1
:100150000F920FB60F9211248F939F93AF93BF937B
:100160008091660090916700A0916800B09169004D
:100170000196A11DB11D8093660090936700A09326
:100180006800B0936900BF91AF919F918F910F90DC
:100190000FBE0F901F90189583B7836083BF8FB5F4
:1001A00083608FBDF894A89580E481BD789417B8DA
:1001B00086B1876886B9B898B998BA98BB9ABC9A3C
:1001C000BD9AC398C498C598C1E0D0E083E050DFE1
:1001D000CE0168EF7FEFEAD088539F4FAFDFC3981F
:1001E00085E046DFCE016CE070E0E0D0A7DFC59887
:1001F00084E03EDFCE01BE01D9D0A0DFC4982196B5
:10020000CF30D10519F7C3E0809166009091670067
:10021000A0916800B091690034E0880F991FAA1F6F
:10022000BB1F3A95D1F740916E0050916F006091DD
:10023000700070917100841B950BA60BB70BC397D0
:10024000A105B10570F080E0FFDE813029F48091D6
:100250006D00882309F482C080E0F6DE882309F46B
:1002600072C080916D00811103C00CDF80936C001F
:1002700080916C00823021F128F4882349F081308C
:1002800099F152C08430F1F0A0F1853021F04CC0DA
:10029000C398C49813C0F6DE8D5F80936C00809184
:1002A0006A0090916B00019690936B0080936A00B6
:1002B000C29730F483E0DCDE84E0DADEC59834C037
:1002C000C398FACFDFDE8D5F80936C0080916A0067
:1002D00090916B00019690936B0080936A00C29797
:1002E00018F483E0C5DE01C0C398C49885E0C0DE81
:1002F0001BC080916A0090916B00019690936B00F7
:1003000080936A00C29718F483E0B2DE01C0C398FC
:10031000C498C59880916000811105C0B3DE8D5FDF
:1003200080936C0001C0AEDE80916A0090916B00FA
:100330008639910520F010926B0010926A0085E0DA
:1003400090E0FCDE61CF80916D00882309F489CFB5
:1003500010926D0097DE80936C0010C086E990E0EB
:10036000EDDE80E071DE813009F07BCF80936D009F
:10037000C0936C0010926B0010926A00809166002E
:1003800090916700A0916800B091690024E0880F07
:10039000991FAA1FBB1F2A95D1F780936E009093D7
:1003A0006F00A0937000B09371005BCF00245527BD
:1003B00004C0080E591F880F991F009729F07695E1
:1003C0006795B8F37105B9F7802D952F0895F894C6
:0203D000FFCF5D
:0203D200140015
:00000001FF
