:1000000009C016C015C014C013C012C011C010C062
:100010007AC00EC011241FBECFE9CDBF20E0A0E6FC
:10002000B0E001C01D92A936B207E1F791D036C108
:10003000E7CF823038F49FB5811102C09F7701C0AD
:100040009F7D9FBD26B330E0A90102C0559547951D
:100050008A95E2F7CA018170089598B321E030E0F3
:1000600001C0220F8A95EAF7292B28BB08958FE556
:1000700099E00197F1F700C000008FE599E0019742
:10008000F1F700C000008FE599E00197F1F700C09B
:1000900000008FE599E00197F1F700C000008FE5BF
:1000A00099E00197F1F700C00000089581E0C1DFF9
:1000B000813021F482E0BDDF8130D1F081E0B9DF11
:1000C000811106C0D4DF81E0B4DF882369F00BC062
:1000D00082E0AFDF811106C0CADF82E0AADF882399
:1000E00029F001C0C4DF089581E0089582E00895F9
:1000F000BEDF81E09EDF8130B1F782E09ADF8130A0
:1001000091F780E008951F920F920FB60F9211247D
:100110008F939F93AF93BF93809160009091610004
:10012000A0916200B09163000196A11DB11D809362
:10013000600090936100A0936200B0936300BF9150
:10014000AF919F918F910F900FBE0F901F901895B8
:1001500083B7836083BF8FB583608FBDF894A89504
:1001600080E481BD789417B886B1876886B9B8985D
:10017000B998BA98BB9ABC9ABD9A83E06EDF84E0C6
:100180006CDF85E06ADFC1E0D3E080E052DF8111FF
:1001900015C06DDF80E04DDF811110C080916800D7
:1001A000811111C0C0936800D0936700109266005F
:1001B000109265007BDF8093640005C01092680098
:1001C00075DF8093670080916700823021F128F409
:1001D000882349F0813099F154C08430F1F0A0F1C6
:1001E000853021F04EC0C398C49813C05FDF8D5F87
:1001F00080936700809165009091660001969093CE
:10020000660080936500C29730F483E026DF84E0C7
:1002100024DFC59836C0C398FACF48DF8D5F80933E
:10022000670080916500909166000196909366004A
:1002300080936500C29718F483E00FDF01C0C39874
:10024000C49885E00ADF1DC080916500909166002A
:1002500001969093660080936500C29718F483E03E
:10026000FCDE01C0C398C498C598809164008111D8
:1002700005C01CDF8D5F8093670003C017DF80938C
:10028000640080916500909166008639910508F4BC
:100290007CCF109266001092650077CFF894FFCF64
:00000001FF
